{
  "_format": "hh-sol-artifact-1",
  "contractName": "ChainMetricsFeed",
  "sourceName": "contracts/ChainMetricsFeed.sol",
  "abi": [
    {
      "inputs": [
        {
          "internalType": "address",
          "name": "_sedaProverContract",
          "type": "address"
        },
        {
          "internalType": "bytes32",
          "name": "_oracleProgramId",
          "type": "bytes32"
        }
      ],
      "stateMutability": "nonpayable",
      "type": "constructor"
    },
    {
      "anonymous": false,
      "inputs": [
        {
          "indexed": false,
          "internalType": "uint64",
          "name": "avgGasPrice",
          "type": "uint64"
        },
        {
          "indexed": false,
          "internalType": "uint64",
          "name": "avgBlockTime",
          "type": "uint64"
        },
        {
          "indexed": false,
          "internalType": "uint64",
          "name": "txVolume",
          "type": "uint64"
        },
        {
          "indexed": false,
          "internalType": "uint64",
          "name": "timestamp",
          "type": "uint64"
        }
      ],
      "name": "MetricsUpdated",
      "type": "event"
    },
    {
      "inputs": [],
      "name": "dataRequestId",
      "outputs": [
        {
          "internalType": "bytes32",
          "name": "",
          "type": "bytes32"
        }
      ],
      "stateMutability": "view",
      "type": "function"
    },
    {
      "inputs": [],
      "name": "latestMetrics",
      "outputs": [
        {
          "components": [
            {
              "internalType": "uint64",
              "name": "avgGasPrice",
              "type": "uint64"
            },
            {
              "internalType": "uint64",
              "name": "avgBlockTime",
              "type": "uint64"
            },
            {
              "internalType": "uint64",
              "name": "txVolume",
              "type": "uint64"
            },
            {
              "internalType": "uint64",
              "name": "timestamp",
              "type": "uint64"
            }
          ],
          "internalType": "struct ChainMetricsFeed.ChainMetrics",
          "name": "metrics",
          "type": "tuple"
        }
      ],
      "stateMutability": "view",
      "type": "function"
    },
    {
      "inputs": [],
      "name": "oracleProgramId",
      "outputs": [
        {
          "internalType": "bytes32",
          "name": "",
          "type": "bytes32"
        }
      ],
      "stateMutability": "view",
      "type": "function"
    },
    {
      "inputs": [],
      "name": "sedaProverContract",
      "outputs": [
        {
          "internalType": "contract SedaProver",
          "name": "",
          "type": "address"
        }
      ],
      "stateMutability": "view",
      "type": "function"
    },
    {
      "inputs": [
        {
          "internalType": "uint256",
          "name": "chainId",
          "type": "uint256"
        }
      ],
      "name": "transmit",
      "outputs": [
        {
          "internalType": "bytes32",
          "name": "",
          "type": "bytes32"
        }
      ],
      "stateMutability": "nonpayable",
      "type": "function"
    }
  ],
  "bytecode": "0x608060405234801561001057600080fd5b506040516112cf3803806112cf83398181016040528101906100329190610119565b816000806101000a81548173ffffffffffffffffffffffffffffffffffffffff021916908373ffffffffffffffffffffffffffffffffffffffff160217905550806001819055505050610159565b600080fd5b600073ffffffffffffffffffffffffffffffffffffffff82169050919050565b60006100b082610085565b9050919050565b6100c0816100a5565b81146100cb57600080fd5b50565b6000815190506100dd816100b7565b92915050565b6000819050919050565b6100f6816100e3565b811461010157600080fd5b50565b600081519050610113816100ed565b92915050565b600080604083850312156101305761012f610080565b5b600061013e858286016100ce565b925050602061014f85828601610104565b9150509250929050565b611167806101686000396000f3fe608060405234801561001057600080fd5b50600436106100575760003560e01c80637f9c344c1461005c578063814e51c41461007a5780638733544314610098578063cc4133f7146100c8578063f7b92fcd146100e6575b600080fd5b610064610104565b6040516100719190610787565b60405180910390f35b610082610128565b60405161008f91906107bb565b60405180910390f35b6100b260048036038101906100ad9190610820565b61012e565b6040516100bf91906107bb565b60405180910390f35b6100d06102c3565b6040516100dd91906107bb565b60405180910390f35b6100ee6102c9565b6040516100fb91906108c5565b60405180910390f35b60008054906101000a900473ffffffffffffffffffffffffffffffffffffffff1681565b60015481565b600080604051806101200160405280600154815260200161014e85610497565b60405160200161015e9190610977565b6040516020818303038152906040528152602001600154815260200160405180604001604052806001815260200160008152508152602001600361ffff1681526020016040518060400160405280600181526020016000815250815260200160016fffffffffffffffffffffffffffffffff168152602001624c4b406fffffffffffffffffffffffffffffffff1681526020014360405160200161020291906109be565b604051602081830303815290604052815250905060008054906101000a900473ffffffffffffffffffffffffffffffffffffffff1673ffffffffffffffffffffffffffffffffffffffff16633e8389dc826040518263ffffffff1660e01b815260040161026f9190610b70565b6020604051808303816000875af115801561028e573d6000803e3d6000fd5b505050506040513d601f19601f820116820180604052508101906102b29190610bbe565b600281905550600254915050919050565b60025481565b6102d16106b8565b6000801b60025403610318576040517f08c379a000000000000000000000000000000000000000000000000000000000815260040161030f90610c48565b60405180910390fd5b60008060009054906101000a900473ffffffffffffffffffffffffffffffffffffffff1673ffffffffffffffffffffffffffffffffffffffff1663b1d6bb976002546040518263ffffffff1660e01b815260040161037691906107bb565b600060405180830381865afa158015610393573d6000803e3d6000fd5b505050506040513d6000823e3d601f19601f820116820180604052508101906103bc9190611052565b90508060400151156104435760008060008084608001518060200190518101906103e6919061109b565b935093509350935060405180608001604052808567ffffffffffffffff1681526020018467ffffffffffffffff1681526020018367ffffffffffffffff1681526020018267ffffffffffffffff1681525095505050505050610494565b6040518060800160405280600067ffffffffffffffff168152602001600067ffffffffffffffff168152602001600067ffffffffffffffff168152602001600067ffffffffffffffff168152509150505b90565b6060600060016104a684610565565b01905060008167ffffffffffffffff8111156104c5576104c4610c6d565b5b6040519080825280601f01601f1916602001820160405280156104f75781602001600182028036833780820191505090505b509050600082602001820190505b60011561055a578080600190039150507f3031323334353637383961626364656600000000000000000000000000000000600a86061a8153600a858161054e5761054d611102565b5b04945060008503610505575b819350505050919050565b600080600090507a184f03e93ff9f4daa797ed6e38ed64bf6a1f01000000000000000083106105c3577a184f03e93ff9f4daa797ed6e38ed64bf6a1f01000000000000000083816105b9576105b8611102565b5b0492506040810190505b6d04ee2d6d415b85acef81000000008310610600576d04ee2d6d415b85acef810000000083816105f6576105f5611102565b5b0492506020810190505b662386f26fc10000831061062f57662386f26fc10000838161062557610624611102565b5b0492506010810190505b6305f5e1008310610658576305f5e100838161064e5761064d611102565b5b0492506008810190505b612710831061067d57612710838161067357610672611102565b5b0492506004810190505b606483106106a0576064838161069657610695611102565b5b0492506002810190505b600a83106106af576001810190505b80915050919050565b6040518060800160405280600067ffffffffffffffff168152602001600067ffffffffffffffff168152602001600067ffffffffffffffff168152602001600067ffffffffffffffff1681525090565b600073ffffffffffffffffffffffffffffffffffffffff82169050919050565b6000819050919050565b600061074d61074861074384610708565b610728565b610708565b9050919050565b600061075f82610732565b9050919050565b600061077182610754565b9050919050565b61078181610766565b82525050565b600060208201905061079c6000830184610778565b92915050565b6000819050919050565b6107b5816107a2565b82525050565b60006020820190506107d060008301846107ac565b92915050565b6000604051905090565b600080fd5b600080fd5b6000819050919050565b6107fd816107ea565b811461080857600080fd5b50565b60008135905061081a816107f4565b92915050565b600060208284031215610836576108356107e0565b5b60006108448482850161080b565b91505092915050565b600067ffffffffffffffff82169050919050565b61086a8161084d565b82525050565b6080820160008201516108866000850182610861565b5060208201516108996020850182610861565b5060408201516108ac6040850182610861565b5060608201516108bf6060850182610861565b50505050565b60006080820190506108da6000830184610870565b92915050565b7f636861696e2d6d6574726963732d000000000000000000000000000000000000815250565b600081519050919050565b600081905092915050565b60005b8381101561093a57808201518184015260208101905061091f565b60008484015250505050565b600061095182610906565b61095b8185610911565b935061096b81856020860161091c565b80840191505092915050565b6000610982826108e0565b600e820191506109928284610946565b915081905092915050565b6000819050919050565b6109b86109b3826107ea565b61099d565b82525050565b60006109ca82846109a7565b60208201915081905092915050565b6109e2816107a2565b82525050565b600081519050919050565b600082825260208201905092915050565b6000601f19601f8301169050919050565b6000610a20826109e8565b610a2a81856109f3565b9350610a3a81856020860161091c565b610a4381610a04565b840191505092915050565b600061ffff82169050919050565b610a6581610a4e565b82525050565b60006fffffffffffffffffffffffffffffffff82169050919050565b610a9081610a6b565b82525050565b600061012083016000830151610aaf60008601826109d9565b5060208301518482036020860152610ac78282610a15565b9150506040830151610adc60408601826109d9565b5060608301518482036060860152610af48282610a15565b9150506080830151610b096080860182610a5c565b5060a083015184820360a0860152610b218282610a15565b91505060c0830151610b3660c0860182610a87565b5060e0830151610b4960e0860182610a87565b50610100830151848203610100860152610b638282610a15565b9150508091505092915050565b60006020820190508181036000830152610b8a8184610a96565b905092915050565b610b9b816107a2565b8114610ba657600080fd5b50565b600081519050610bb881610b92565b92915050565b600060208284031215610bd457610bd36107e0565b5b6000610be284828501610ba9565b91505092915050565b600082825260208201905092915050565b7f4e6f20646174612072657175657374207472616e736d69747465640000000000600082015250565b6000610c32601b83610beb565b9150610c3d82610bfc565b602082019050919050565b60006020820190508181036000830152610c6181610c25565b9050919050565b600080fd5b7f4e487b7100000000000000000000000000000000000000000000000000000000600052604160045260246000fd5b610ca582610a04565b810181811067ffffffffffffffff82111715610cc457610cc3610c6d565b5b80604052505050565b6000610cd76107d6565b9050610ce38282610c9c565b919050565b600080fd5b600080fd5b600080fd5b600067ffffffffffffffff821115610d1257610d11610c6d565b5b610d1b82610a04565b9050602081019050919050565b6000610d3b610d3684610cf7565b610ccd565b905082815260208101848484011115610d5757610d56610cf2565b5b610d6284828561091c565b509392505050565b600082601f830112610d7f57610d7e610ced565b5b8151610d8f848260208601610d28565b91505092915050565b60008115159050919050565b610dad81610d98565b8114610db857600080fd5b50565b600081519050610dca81610da4565b92915050565b600060ff82169050919050565b610de681610dd0565b8114610df157600080fd5b50565b600081519050610e0381610ddd565b92915050565b600067ffffffffffffffff821115610e2457610e23610c6d565b5b610e2d82610a04565b9050602081019050919050565b6000610e4d610e4884610e09565b610ccd565b905082815260208101848484011115610e6957610e68610cf2565b5b610e7484828561091c565b509392505050565b600082601f830112610e9157610e90610ced565b5b8151610ea1848260208601610e3a565b91505092915050565b610eb38161084d565b8114610ebe57600080fd5b50565b600081519050610ed081610eaa565b92915050565b610edf81610a6b565b8114610eea57600080fd5b50565b600081519050610efc81610ed6565b92915050565b60006101208284031215610f1957610f18610c68565b5b610f24610120610ccd565b9050600082015167ffffffffffffffff811115610f4457610f43610ce8565b5b610f5084828501610d6a565b6000830152506020610f6484828501610ba9565b6020830152506040610f7884828501610dbb565b6040830152506060610f8c84828501610df4565b606083015250608082015167ffffffffffffffff811115610fb057610faf610ce8565b5b610fbc84828501610e7c565b60808301525060a0610fd084828501610ec1565b60a08301525060c0610fe484828501610eed565b60c08301525060e082015167ffffffffffffffff81111561100857611007610ce8565b5b61101484828501610e7c565b60e08301525061010082015167ffffffffffffffff81111561103957611038610ce8565b5b61104584828501610e7c565b6101008301525092915050565b600060208284031215611068576110676107e0565b5b600082015167ffffffffffffffff811115611086576110856107e5565b5b61109284828501610f02565b91505092915050565b600080600080608085870312156110b5576110b46107e0565b5b60006110c387828801610ec1565b94505060206110d487828801610ec1565b93505060406110e587828801610ec1565b92505060606110f687828801610ec1565b91505092959194509250565b7f4e487b7100000000000000000000000000000000000000000000000000000000600052601260045260246000fdfea26469706673582212201546e99f91191c08a0620ce700c8cf1cc91faca2ef0608a20dddecda24491a8064736f6c63430008190033",
  "linkReferences": {},
  "deployedLinkReferences": {}
}